:020000040800F2
:10000000C8080020350200080948000871390008B6
:100010000548000885160008E54C000800000000AF
:10002000000000000000000000000000B9480008C7
:100030000D19000800000000794800081149000867
:100040004F0200084F0200084F0200084F0200084C
:100050004F0200084F0200084F0200084F0200083C
:100060004F0200084F0200084F0200084F0200082C
:100070004F0200084F0200084F0200084F0200081C
:100080004F0200084F0200084F0200084F0200080C
:100090004F0200084F0200084F0200084F020008FC
:1000A0004F0200084F0200084F0200084F020008EC
:1000B000894900084F0200084F0200084F0200085B
:1000C0004F0200084F0200084F0200084F020008CC
:1000D0004F0200084F0200084F0200084F020008BC
:1000E0004F0200084F0200084F02000800F002F81B
:1000F00000F090F80AA090E8000C82448344AAF132
:100100000107DA4501D100F085F8AFF2090EBAE82F
:100110000F0013F0010F18BFFB1A43F0010318473B
:10012000206D0000406D0000103A24BF78C878C1EF
:10013000FAD8520724BF30C830C144BF04680C60ED
:10014000704700000023002400250026103A28BF35
:1001500078C1FBD8520728BF30C148BF0B60704739
:100160006E2900F0B181702900F0F382662906F053
:10017000DB84652906F0D884672906F0D5846129D7
:1001800006F0D48403681B0A28BF41F08001692966
:1001900000F05E81642900F05B81752900F05881D0
:1001A0006F2900F08182782900F0BF82E92900F0F0
:1001B0001B82E42900F01882F52900F01582EF294E
:1001C00000F07E82F82900F0BE820368DB0928BFB8
:1001D00041F08001632900F0C387732900F0C887CC
:1001E000E32900F0D387F32900F0D8870020704777
:1001F0001FB501F02DF804000020002105F094FE49
:10020000401C60600020002105F078FEE0601FBD0A
:1002100010B510BD00F0EEFF1146FFF7E9FF04F046
:10022000C3FD01F0CBF803B4FFF7F2FF03BC01F00C
:100230000FF900000948804709480047FEE7FEE73C
:10024000FEE7FEE7FEE7FEE7FEE7FEE7FEE7FEE786
:1002500004480549054A064B7047000085490008D7
:10026000ED000008C8020020C8080020C8040020D3
:10027000C80400200FB41CB5084B06AA7B4469468D
:100280000090059800F039F904460020694600F016
:1002900047F920461CBC5DF814FB0000A1020000D9
:1002A00010B5431C02E010F8011B71B18107FAD1AF
:1002B0004FF0013202C88C1A8C4314EAC211F9D0F3
:1002C000C01A0A0603D0C01E10BDC01A10BD0A0411
:1002D00001D0801E10BD0902FCD0401E10BD4FF0A1
:1002E00000020429C0F0128010F0030C00F01B8003
:1002F000CCF1040CBCF1020F18BF00F8012BA8BF11
:1003000020F8022BA1EB0C0100F00DB85FEAC17CD4
:1003100024BF00F8012B00F8012B48BF00F8012B87
:1003200070474FF0000200B51346944696462039B8
:1003300022BFA0E80C50A0E80C50B1F12001BFF49E
:10034000F7AF090728BFA0E80C5048BF0CC05DF804
:1003500004EB890028BF40F8042B08BF704748BF52
:1003600020F8022B11F0804F18BF00F8012B7047C6
:1003700070477047704710B500F0BAFA006810BDBA
:1003800010B5044600F0B4FA046010BD70B5044620
:1003900085690068C10601D5302600E02026C00727
:1003A00007D070BDD4E9012130469047206A401C37
:1003B00020626D1EF6D570BD70B504468569007863
:1003C000C00707D170BDD4E9012120209047206AE1
:1003D000401C20626D1EF6D570BD09684A0501D526
:1003E00040B27047C905FCD500B2704709684A059C
:1003F00001D5C0B27047C905FCD580B2704770B551
:100400000C460546012A05D02878800600D5EA6901
:10041000002302E0012305E05B1C934202D2E05C72
:100420000028F9D1A869E618C01AA861286A1844FA
:1004300028622846FFF7AAFF04E0D5E9012114F855
:10044000010B9047B442F8D32846FFF7B5FF70BDC3
:100450002DE9F0410646002410687529314616A59D
:1004600010D0FFF7BAFF002802DA404213A507E0D8
:1004700031688A0701D512A502E0490704D511A504
:10048000012401E0FFF7B2FF00210A2206F1240750
:1004900009E0B0FBF2FCB0FBF2F302FB1C003030D1
:1004A00078541846491C0028F3D123462A46304682
:1004B000BDE8F04100F065BA000000002D0000002A
:1004C0002B0000002000000011680268006A53053C
:1004D00001D508700AE0D30501D5088006E01306AF
:1004E00003D5C217C1E9000200E00860012070478F
:1004F00001694A1C02610878704700B58FB0CDE9E8
:1005000001310021059105497944CDE903101146D7
:10051000684600F029F90FB000BD0000E5FFFFFFBD
:100520000A6802F8010B0A60704700002DE9FF5FBE
:1005300015468A460446DFF8AC80F8440027D8E91F
:1005400000103E46CDE9001010E03AF816106A4659
:1005500002A800F027FE411C07D02178890603D5A8
:10056000E269391891420DD80744761C207880063C
:1005700002D5E069B84205DDAE42E6DB3AF8160086
:100580000028E2D1A069C01BA0612046FFF7FEFE53
:10059000D8E90010CDE90010002017E03AF8181053
:1005A0006A4602A800F0FEFDB0F1FF3F81460BD085
:1005B00000250DF1080B05E0D4E901211BF8050029
:1005C00090476D1C4D45F7D308F10100B0428046BD
:1005D000E4DB206A384420622046FFF7EDFEBDE8E8
:1005E000FF9F00007A6700002DE9F0418046D21D90
:1005F00022F007020025D2E90002F52915A614D041
:10060000011E72F1000106DA0023D0EB030063EB58
:10061000020211A608E0D8F800108B0701D50FA63A
:1006200002E0490701D50EA601251146002408F174
:10063000240704E000F060F930323A55641C50EAB7
:100640000102F7D12B46324621464046BDE8F04133
:1006500000F097B9000000002D0000002B00000002
:100660002000000030B4002100F1240408E002F072
:100670000705D208303542EA4372DB086554491C4D
:1006800052EA0305F3D10468002310A2250708D518
:1006900004F020040C4304D0C46901230CA2641E9E
:1006A000C46130BC00F06DB910B504462146106835
:1006B000FFF79CFE02462046BDE810400023D1E72C
:1006C000D21D22F00701D1E90023CBE70000000092
:1006D00030000000F0B40D460188090502D5214C18
:1006E0007C4402E01F4C7C440E34002100F12406BF
:1006F00008E002F00F071209E75D42EA03721B09E6
:100700007754491C52EA0307F3D1027800231207F9
:1007100004D5702D06D009B1022311342246F0BC55
:1007200000F02FB901231034F8E770B504460D46E8
:1007300021461068FFF75AFE024629462046BDE8CA
:1007400070400023C6E7D21D22F00703D3E900233F
:10075000C0E70368126843F0200303600823C36105
:100760000023B7E7DC6500002DE9F05F8946044609
:100770004FF0000ADFF874B1FB44C0F820A0204617
:10078000E1688847002874D0252806D0D4E90121E3
:100790009047206A401C2062F1E700265F46204611
:1007A000E16888472028054607DB312D05D27819F6
:1007B00010F8200C08B10643F1E7B00701D526F088
:1007C0000406C4F81CA00027C4F818A02A2D09D0DC
:1007D000284605F087F938B304EB8708303DC8F8A0
:1007E000185019E059F8041B204604EB8702916168
:1007F000E1688847012F054618D1E069002820DA12
:1008000026F020061DE0D8F8180000EB800005EB6C
:1008100040003038C8F818002046E168884705468F
:1008200005F060F90028EED1012F0AD02E2D08D155
:100830002046E16888477F1C0546022F46F02006C7
:10084000C4DBA069002803DA404246F00106A0613B
:10085000F00701D026F010066C2D0BD0682D09D0C2
:100860004C2D39D06A2D35D0742D35D07A2D33D01A
:1008700016E038E0E1682F4620468847B842054632
:1008800009D16C2F26D04FF48060E16806432046E2
:100890008847054604E06C2F1AD04FF48070064359
:1008A0000DB3A5F14100192802D8203546F40066A1
:1008B0004A462946204626604E46FFF751FC80B145
:1008C00001280BD0F61D26F0070000F1080956E7B5
:1008D0004020E4E78020D8E70020D6E706F10409AD
:1008E0004DE7284652E7206ABDE8F09F6C6500009E
:1008F00000487047A800002030B5B0F10A0271F13D
:1009000000034FEA900E4EEA817EB0EB0E0061EBE1
:1009100091014FEA101E4EEA017E10EB0E0041EBF2
:1009200011114FEA102E4EEA016E10EB0E0041EB52
:1009300011214FEA104E4EEA014E10EB0E0041EB32
:100940001141401841F100014FEAD00040EA4170E6
:100950004FEAD1014FEA810444EA907410EB80051C
:1009600044EB01046D1944EB0404521BA3414FF006
:10097000000348BF0A3200D530BD401C41F10001E0
:1009800030BD2DE9F0470D4699469246044600F1E8
:1009900024080168880604D5E06921F0100121606F
:1009A00000E00120A84201DD471B00E00027A1690B
:1009B0007A1902EB0900081AA0612078C00602D457
:1009C0002046FFF7E3FC002608E0D4E901211AF8ED
:1009D00006009047206A401C761C20624E45F4DBDE
:1009E0002078C0060AD52046FFF7D0FC06E0D4E9FF
:1009F000012130209047206A401C2062381EA7F158
:100A00000107F4DC07E0D4E9012118F8050090475C
:100A1000206A401C2062281EA5F10105F3DC204657
:100A2000FFF7CAFC2078000602D50220BDE8F08757
:100A30000120FBE72DE9FF4F0C461E464FF0FF3724
:100A40008BB0D2E90001DDF860800A908A46C1F3DC
:100A50000A5505B93D46002108464FF00000BAF19D
:100A6000000F00F4400005DA00EB80004FF4400175
:100A700001EA50004FEA9059B9F1010F00DDB94683
:100A80000A9850EA4A000ED044F61050A5F2FF35FD
:100A900045432F14B8F1000F1ED07542291E1EDDEC
:100AA000C9F100021CE0B8F1010F4FF0000001D0C5
:100AB000302103E0F24305E02154401CB042FBDB4F
:100AC00030460022002121540B99C1F80880C1E969
:100AD00000200FB0BDE8F08FBD1B6D1CDEE74A465D
:100AE00000DA694206A800F0F7FB06AB93E80700BE
:100AF00003AB83E8070050460A9904F0B5FB8DE884
:100B00000700A0F500501F3800900398002D0ADD63
:100B100042F21F014A460844002303A90390684695
:100B200004F01EFE09E0A0F500504A461F380023DD
:100B300003A90390684604F028FE8DE8070000042E
:100B4000000C03D04FF0FF30410800E01046B8F130
:100B5000000F03D00022009215461EE0751E05D43A
:100B6000FFF7CAFE303262556D1EF9D5B346012239
:100B7000084302D000227F1C04E02078302801D1F5
:100B800000227F1E002A099784D01DE0112D07DA6C
:100B9000FFF7B2FE303262556D1C50EA0102F5D10A
:100BA000084302D00098C8B10EE00021681E05E09D
:100BB000235C625C63542254401E491C8142F7DB73
:100BC000AB46A81B401E0990002004F80B000B98B0
:100BD000099AC0F80880C0E9002B7AE711264FF087
:100BE000000857E72DE9F04F88460446D21D22F051
:100BF000070191B0D1E90001CDE90A0104F0FCFE42
:100C000002460B98C00F01D02D2007E02068810715
:100C100001D52B2002E0202101EAC000032A09901F
:100C200001D0072A05DB03464146204600F014FBAD
:100C30000BE12078800601D5E06900E00620B8F1DC
:100C4000650F814606D0B8F1660F18D0B8F1670F6E
:100C500070D131E00020B9F1110F009001DB1123B8
:100C600001E009F101030AAA01A90CA8FFF7E2FEBD
:100C7000DDE90C70002609F10105834647E00120FB
:100C80004B4600904FF000470AAA01A90CA8FFF7B5
:100C9000D1FEDDE90DB00C995D46002610B909F1D1
:100CA00001000D18B9EB050003D4C0F1FF3609F1BE
:100CB0000105A5EB09002BE0B9F1010F01DA4FF0B6
:100CC00001090020B9F1110F0090484601DD112300
:100CD00000E003460AAA01A90CA8FFF7ABFEDDE974
:100CE0000C704D4600268346207800070AD4AB4599
:100CF00000DA5D4601A8012D04DD411911F8011C3F
:100D0000302907D04F4502DA17F1040F04DA012029
:100D100082460FE06D1EEEE7002F02DCED1B3E4425
:100D200003E0781CA84200DD7D1CB81B00F1010A1D
:100D30004FF000472078000703D4AA4501DB4FF0AD
:100D4000FF3A0021B7F1004F0DF143088DF8431031
:100D500024D002202B23002F01DA7F422D230A21E9
:100D6000021EA0F1010000DC5FB197FBF1FC97FBD4
:100D7000F1F201FB1C7C17460CF1300C08F801CD98
:100D8000EEE7A8F1010003702188090501D545218E
:100D900000E06521A0F1010800F8011C09980FA9E5
:100DA000A1EB0807FF1D00B10120411901EBEA701A
:100DB000A1693844081A401EA0612078C00602D4F8
:100DC0002046FFF7E3FA099828B1D4E901219047BA
:100DD000206A401C20622078C00622D52046FFF7FA
:100DE000D5FA1EE0002E04DBB34502DD01A8805DCC
:100DF00000E03020D4E901219047206A401C2062A5
:100E0000761CAAF101005FEA000A0AD100F020FA7C
:100E1000C0680168405CD4E901219047206A401C09
:100E20002062281EA5F10105DCDC07E0D4E90121E0
:100E300018F8010B9047206A401C2062381EA7F169
:100E40000107F3DC2046FFF7B7FA032011B041E6B3
:100E50002DE9F04F04460D46D21D22F0070089B05F
:100E6000D0E900974846394604F0C6FD0246F80F1F
:100E700001D02D2307E02068810701D52B2302E054
:100E8000202101EAC0038DF820300BB1012000E0E1
:100E90000020032A824601D0072A04DB2946204687
:100EA00000F0DAF93FE12078800601D40D2500E05A
:100EB000E569C7F30A560D2D49DA00214FEA175BA1
:100EC00008464FF00000002F00F4400007DA00EB66
:100ED00080004FF4400100EBD07001EA6000811502
:100EE000012901DD4FF0FF3100224FEA850CBCF1F2
:100EF000180F06D31346ACF118004FF08052C240D1
:100F000003E04FF4801323FA0CF30CF10C0CBCF14A
:100F1000200F04D3ACF1200C09FA0CF001E007FA21
:100F20000CF000294FF0004801DD18B90FE00ED198
:100F300040450CD319EB02095F4121B9404502D16C
:100F40009F4329EA0209BBEB175F00D0761C20887B
:100F5000000502D57B48784402E07A487844193885
:100F600008AA302302F80A30037C0AF10101002E9E
:100F70000AF1020A53546A4602DC4FF0300101E0E4
:100F80004FF031014FF001088DF8001002D0A6F2A9
:100F9000FF3603E059EA470100D06B4E002D02DC1A
:100FA0002178090704D54FF002082E218DF8011091
:100FB000C44600210BE0C7F303433F01C35C491C57
:100FC0006D1E02F80830052908F1010801DA002D2C
:100FD000F1DC00210CE000EB1973491C1B786D1E3D
:100FE000082902F808304FEA091908F1010801DA66
:100FF000002DF0DC21688B0602D516E0A8F101086F
:10100000E04505DD02EB080313F8013C302BF5D079
:10101000B8F1000F09DD02EB080313F8013C2E2B99
:1010200003D1090701D4A8F10108002D05DD3E21F7
:1010300002F808106D1E08F10108407C002E02F82D
:10104000080008F1010804DA2D20764202F80800B1
:1010500002E02B2002F808000A214FF47A70864241
:1010600008F101080BDB96FBF0F3303302F808308F
:1010700096FBF0F308F1010800FB136601E0642E13
:101080000CDB642096FBF0F3303302F8083096FB5B
:10109000F0F308F1010800FB136601E00A2E06DBFD
:1010A00096FBF1F0303002F8080008F1010896FBD9
:1010B000F1F001FB1060303002F80800A16908F17E
:1010C000010808EB050202EB0A00081AA06120786B
:1010D000C00602D42046FFF759F9216A08AE01EB99
:1010E0000A00206204E0D4E9012116F8010B9047C0
:1010F000BAF1010AF7D22078C00602D52046FFF7E0
:1011000045F96E4609E016F8010B3E280FD0D4E9E8
:1011100001219047206A401C2062B8F10108F2D2F8
:101120002046FFF749F909B00320BDE8F08F206A97
:101130002844206203E0D4E90121302090476D1E4D
:10114000EBD3F8E7C15D000002FCFFFF10B5436977
:1011500013B1AFF3008001E0FFF751F9012010BD9A
:10116000127800F124010A7000224A700122EDE792
:1011700011684FF0FF32E9E710B5436913B1AFF3DF
:10118000008001E0FFF7D2F9012010BD128800F1C4
:10119000240182840022C2840122EDE711684FF00D
:1011A000FF32E9E72DE9F04116460C46054600F00E
:1011B00047F8036893F80101012807D0FF2C12D8E3
:1011C000185D80B101202C70BDE8F081D3F80701D3
:1011D0003246214603F20713C7182846BC46BDE82D
:1011E000F041002360474FF0FF30EDE700487047C3
:1011F000A80000207546FFF7F9FFAE4605006946D6
:10120000534620F00700854618B020B5FFF720F8B8
:10121000BDE820404FF000064FF000074FF00008F7
:101220004FF0000BAC46ACE8C009ACE8C009ACE834
:10123000C009ACE8C00921F007018D4670470000E5
:1012400010B500F005F8001D10BD00BFDD4C00001A
:1012500000487047C80000202DE9F0411F460446B1
:1012600003260168072A01F4006004DB08B116A513
:1012700005E016A503E008B115A500E015A521F0CD
:1012800010002060A069C01EA0610FB1401EA061C7
:101290002046FFF77BF84FB1D4E90121384690474B
:1012A000206A401C2062C01C206206E0206AFAE727
:1012B000D4E9012115F8010B9047761EF8D220469B
:1012C000FFF77AF8BDE8F0814E414E006E616E0086
:1012D000494E4600696E66002DE9F0478146164684
:1012E0008AB0354878440DC88DE80D0032487844FE
:1012F000801C03AC0DC884E80D0041F69B30084407
:10130000372190FBF1F290FBF1F5A5F1800501FB8F
:1013100012041B3C02D56442012000E00020DFF8EB
:1013200098A080460027FA44AAF1BE0A0EE0E00722
:101330000AD03246684607EB470101230AEB8101D8
:1013400004F023FA8DE8070064107F1C002CEED116
:10135000194F7F44AE3F19E0E80715D007EB0410A2
:101360000DF1180A90E80E008AE80E00C068F042FD
:1013700001D1981908903246012306A903A804F068
:1013800004FA03AB83E807006D10641C002DE3D161
:101390004FF0010332466946B8F1000F03A802D0AE
:1013A00004F0DEF901E004F0F0F9C9E90001C9F840
:1013B00008200AB0BDE8F087C45A000010B5044602
:1013C000AFF300802046BDE81040FEF72CBF0000C0
:1013D0004FF0013C50F8042B51F8043B9A4221D1C4
:1013E000A2EB0C03934313EACC1317D150F8042B50
:1013F00051F8043B9A4215D1A2EB0C03934313EA34
:10140000CC130BD150F8042B51F8043B9A4209D16C
:10141000A2EB0C03934313EACC13DBD04FF0000094
:10142000704700BFD01A01BAB1FA81F101F018017A
:1014300022FA01F0CB40DBB2C0B2C01AC1F12001E8
:101440002CFA01F3D11A914311EAC311E6D1704786
:1014500001491820ABBEFEE72600020070470000DD
:1014600010B58CB00B90002008908DF82B000B98D5
:101470006A466424079494600123099353600DF134
:101480002B0105911160A62106912D22049200F0F6
:10149000B5FF049ADDF814C00699099B08208DF861
:1014A0002B000B98EE46CEF80840CEF80430CEF86C
:1014B00000C000F0A3FF059A0699099BDDF81CE027
:1014C00008988DF82B000B98EC46CCF808E0CCF887
:1014D0000430CCF80020312200F090FF09980CB0C5
:1014E00010BD000080B58AB009900891089940F2BB
:1014F000E010C2F2000003F0E9FC089B9869D9698A
:101500001A6A5B6A04F006FC4AF6E312C1F6472247
:1015100006924AF2DC53C4F24C03079304F0FCFF3A
:101520000A460899CA678867089801690491416961
:10153000059181690091C1690191026A436A10466F
:10154000194604F0E9FF009A019B029003911046AE
:10155000194604F0E1FF029A039B04F0FBFC04F03F
:10156000A7FC024604980B46059981F0004104F05F
:10157000D1FB069A079B04F0CFFF0A460899C1F8F1
:101580008420C1F880000AB080BD000080B58EB014
:101590000D900C910C9940F2E010C2F2000003F0A3
:1015A000F5FCDDF830C0CDF808C040F20000C2F212
:1015B0000000079002684368DCF83800DCF83C1053
:1015C000DCF890E0CDF800E0DCF894C0CDF804C081
:1015D00004F0A2FF009A019B04F0BCFC029A0346AF
:1015E000079803930B460399C2F89430C2F8901001
:1015F000DDF830C0CDF818C002684368DCF8400060
:10160000DCF84410DCF898E0CDF810E0DCF89CC081
:10161000CDF814C004F080FF049A059B04F09AFCF6
:10162000069A0346079808930B460899C2F89C301F
:10163000C2F89810DDF830C0CDF82CC002684368BD
:10164000DCF84800DCF84C10DCF8A0E0CDF824E031
:10165000DCF8A4C0CDF828C004F05EFF099A0A9B0C
:1016600004F078FC0A460B99C1F8A420C1F8A00048
:101670000EB080BD80B540F2E010C2F2000003F071
:101680005FFD80BDFFE7FEE780B594B013900020BA
:101690001290119010900F900E900D90ADF83200B6
:1016A000FFE7BDF93200632800F3F880FFE76946E1
:1016B00064208860062048600BA8086040F2E010B3
:1016C000C2F20000A6213222012300F033FC9DF873
:1016D0002C009DF82D1040EA01201399C8809DF838
:1016E0002E009DF82F1040EA0120139908819DF8E3
:1016F00030009DF8311040EA012013994881FFE73E
:1017000040F21810C2F200000078012819D0FFE75B
:1017100069466420886001234B6040F21810C2F2D1
:1017200000000890086040F2E010C2F20000D321EF
:10173000272200F0FFFB08990878C0F3C00008706A
:10174000DEE76946642006908860012305934B60BC
:101750000DF126000390086040F2E010C2F2000094
:101760000790D3210491282200F0E4FB039A049906
:10177000059BDDF818E007980132EC46CCF808E04C
:10178000CCF80430CCF80020292200F0D3FB039AD7
:101790000499059BDDF818E007980232EC46CCF876
:1017A00008E0CCF80430CCF800202A2200F0C2FB7C
:1017B000039A0499059BDDF818E007980332EC467C
:1017C000CCF808E0CCF80430CCF800202B2200F054
:1017D000B1FB039A0499059BDDF818E007980432E1
:1017E000EC46CCF808E0CCF80430CCF800202C22F1
:1017F00000F0A0FB039A0499059BDDF818E0079818
:101800000532EC46CCF808E0CCF80430CCF80020E7
:101810002D2200F08FFB9DF826009DF8271040EA4E
:1018200001201399C8859DF828009DF8291040EAE9
:101830000120139908869DF82A009DF82B1040EA94
:101840000120139948861398B0F90610129808449D
:1018500012901398B0F90810119808441190139839
:10186000B0F90A101098084410901398B0F92E108F
:101870000F9808440F901398B0F930100E98084450
:101880000E901398B0F932100D9808440D90FFE7B0
:10189000BDF832000130ADF8320002E7129848F28C
:1018A0001F51C5F2EB1180FB0102500900EBD27011
:1018B000139A1080119880FB0102500900EBD2703E
:1018C000139A5080109880FB0102500900EBD270EF
:1018D000A0F58070139A90800F9880FB0102500948
:1018E00000EBD270139A10850E9880FB010250090C
:1018F00000EBD270139A50850D9880FB01014809C6
:1019000000EBD1701399888514B080BD704700003A
:1019100081B0EFF3108072B60090FFE7FEE70000A1
:1019200080B584B0039000F0ADF902900398019067
:101930000198013048B1FFE740F29C00C2F200007C
:101940000178019808440190FFE7FFE700F09AF959
:101950000299401A0199884201D2FFE7F6E704B0E4
:1019600080BD000090B00F900E9100200D90099066
:10197000FFE70E9800680D99C840002800F07F81AD
:10198000FFE70D99012088400C900E9800680C9993
:1019900008400B900B980C99884240F06C81FFE74F
:1019A0000E9840680590002851D0FFE7059801285F
:1019B0003AD0FFE7059802283FD0FFE705980328B3
:1019C0005FD0FFE70598112832D0FFE7059812286D
:1019D00038D0FFE705980021C1F21101884236D0C6
:1019E000FFE705980021C1F2120188422FD0FFE7DE
:1019F00005980021C1F22101884228D0FFE705980F
:101A00000021C1F22201884221D0FFE70598002180
:101A1000C1F2310188421AD0FFE705980021C1F2D6
:101A20003201884213D02FE00E98C06809902CE054
:101A30000E98C0680430099027E00E98C0680830FE
:101A4000099022E00E98C0680C3009901DE00E98B5
:101A5000806818B9FFE70420099011E00E988068AB
:101A6000012806D1FFE7082009900C980F9908611A
:101A700005E0082009900C980F994861FFE7FFE7FF
:101A800003E00020099000E0FFE70B98FF2803D84F
:101A9000FFE70F98049003E00F9804300490FFE7ED
:101AA000049808900B98FF2804D8FFE70D98800051
:101AB000039006E00D996FF01F0000EB810003908A
:101AC000FFE70398079008980068079A0F21914054
:101AD0008843099991400843089908600E98C07995
:101AE000C006002840F1C680FFE7FFE741F218007A
:101AF000C4F20200016841F001010160006800F0D9
:101B0000010006900698FFE70D9820F003000821D9
:101B1000C4F2010140580A900D9800F003008100C2
:101B20000F2000FA01F10A9888430A900F9840F6B6
:101B30000001C4F20101884203D1FFE700200290B6
:101B400026E00F9840F60041C4F20101884203D11B
:101B5000FFE70120019018E00F9841F20001C4F264
:101B60000101884203D1FFE7022000900AE00F99AB
:101B700041F20042C4F201020420914208BF032056
:101B80000090FFE700980190FFE701980290FFE7BF
:101B900002980D9901F00301890000FA01F10A98F9
:101BA00008430A900A980D9921F003010822C4F213
:101BB000010288500E988079C00748B1FFE70B9A60
:101BC00040F20041C4F2010108681043086008E0D7
:101BD0000B9A40F20041C4F201010868904308608A
:101BE000FFE70E9880798007002809D5FFE70B9A58
:101BF00040F20441C4F2010108681043086008E0A3
:101C00000B9A40F20441C4F2010108689043086055
:101C1000FFE70E988079C006002809D5FFE70B9AE8
:101C200040F20841C4F2010108681043086008E06E
:101C30000B9A40F20841C4F2010108689043086021
:101C4000FFE70E9880798006002809D5FFE70B9AF8
:101C500040F20C41C4F2010108681043086008E03A
:101C60000B9A40F20C41C4F20101086890430860ED
:101C7000FFE7FFE7FFE70D9801300D9079E610B020
:101C80007047000040F2C020C2F2000000687047B8
:101C900080B58EB00C900C9820B9FFE701208DF82C
:101CA000370043E10C9890F83D0040B9FFE70C99EC
:101CB000002081F83C000C9800F0A8FCFFE70C998C
:101CC000242081F83D000C980168086820F001008C
:101CD00008600C980168086840F4004008600C989F
:101CE0000168086820F40040086000F0B9FE0A901E
:101CF0000C98406848F2A061C0F2010188420BD8FC
:101D0000FFE70A9948F28042C0F21E020020914289
:101D100038BF012009900AE00A9940F60012C0F28B
:101D20003D020020914238BF01200990FFE7099849
:101D3000012804D1FFE701208DF83700F6E00A986A
:101D40004DF68361C4F21B31A0FB0110800C0B9097
:101D50000C980068406820F03F000B9908430C99EC
:101D6000096848600C980068006A20F03F000890FD
:101D70000C98406848F2A061C0F20101884204D882
:101D8000FFE70B98013007900EE00B984FF4967127
:101D9000484344F6D351C1F26201A0FB0101012086
:101DA00000EB91100790FFE70898079908430C99FA
:101DB000096808620C980068C0694CF6FF71884396
:101DC00006900C98406848F2A061C0F20101884278
:101DD0001FD8FFE70A9801380C9949684900B0FB01
:101DE000F1F001306FF31F30032803D8FFE7042020
:101DF00005900BE00A9801380C9949684900B0FB3E
:101E0000F1F001306FF31F300590FFE70598049063
:101E10004CE00C98806868B9FFE70A9801380C9983
:101E2000496801EB4101B0FBF1F001306FF31F3065
:101E300003900DE00A9801380C9949681922514322
:101E4000B0FBF1F00130042161F31F300390FFE794
:101E50000398000518B9FFE70120029023E00C98D1
:101E6000806868B9FFE70A9801380C99496801EB66
:101E70004101B0FBF1F001306FF31F3001900DE034
:101E80000A9801380C99496819225143B0FBF1F0C6
:101E90000130042161F31F300190FFE7019840F405
:101EA00000400290FFE702980490FFE7069804992B
:101EB00008430C990968C8610C980068006820F014
:101EC000C0000C9B1968DA691B6A1A43104308604A
:101ED0000C980068806848F2FF3188430C9A1168BA
:101EE000D36812691A43104388600C980068C06870
:101EF00020F0FF000C9B19685A699B691A43104334
:101F0000C8600C980168086840F0010008600C99EE
:101F1000002008640C9A202182F83D100C99086377
:101F20000C9981F83E008DF83700FFE79DF83700E7
:101F30000EB080BD10B590B0844614981398DDF8AB
:101F400048E0CDF828C0ADF82610ADF82420ADF853
:101F50002230ADF8200000200790FFF793FE069096
:101F60000A9890F83D00202840F03F82FFE70A9849
:101F700006996A4611600221C0F21001012219235C
:101F800001F006FF20B1FFE702208DF82F0030E2BC
:101F9000FFE70A9890F83C00012804D1FFE70220EF
:101FA0008DF82F0025E20A99012081F83C00FFE717
:101FB000FFE70A9800680068C00738B9FFE70A9889
:101FC0000168086840F001000860FFE70A980168AE
:101FD000086820F4006008600A99222081F83D001A
:101FE0000A99402081F83E000A990020086412985E
:101FF0000A994862BDF820000A9948850A98408DE0
:102000000A9908850A990020CFF6FF70C8620A98DD
:10201000BDF82610BDF82420BDF82230DDF850C0F0
:10202000069CEE46CEF80440CEF800C001F0D4FC89
:1020300020B1FFE701208DF82F00DAE10A98008D2A
:10204000A0B9FFE7FFE7002005900A980068406903
:1020500005900A980068806905900598FFE70A983E
:102060000168086840F4007008605DE00A98008D1F
:1020700001281FD1FFE70A980168086820F48060F2
:102080000860EFF3108072B60F90FFE70020049015
:102090000A980068406904900A9800688069049072
:1020A0000498FFE70A980168086840F40070086027
:1020B00062B638E00A98008D02281FD1FFE70A981F
:1020C0000168086840F400600860EFF3108072B6A1
:1020D0000E90FFE7002003900A9800684069039083
:1020E0000A980068806903900398FFE70A980168DE
:1020F000086820F48060086062B613E00A980168FE
:10210000086840F480600860FFE7002002900A98A9
:102110000068406902900A980068806902900298FD
:10212000FFE7FFE7FFE7FFE7FFE70A98008D0028DA
:1021300000F04981FFE70A98008D032800F207812B
:10214000FFE70A98008D01281ED1FFE70A9814992D
:10215000069A01F005FF20B1FFE701208DF82F005E
:1021600047E10A98006800690A99496A08700A9963
:10217000486A013048620A99088D013808850A9931
:10218000488D01384885E1E00A98008D022841D148
:10219000FFE70A98149B06996A4611600421C0F271
:1021A0000101002201F0F4FD20B1FFE701208DF8CC
:1021B0002F001EE1EFF3108072B60D900A980168AF
:1021C000086840F4007008600A98006800690A997D
:1021D000496A08700A99486A013048620A99088D6C
:1021E000013808850A99488D0138488562B60A98F1
:1021F000006800690A99496A08700A99486A0130BA
:1022000048620A99088D013808850A99488D013875
:1022100048859AE00A98149B06996A461160042141
:10222000C0F20101002201F0B3FD20B1FFE701205F
:102230008DF82F00DDE00A980168086820F48060BE
:102240000860EFF3108072B60C900A98006800697D
:102250000A99496A08700A99486A013048620A99DD
:10226000088D013808850A99488D0138488540F263
:102270009800C2F20000006848F21F51C5F2EB114D
:10228000A0FB0110C00844F6D351C1F26201A0FBCB
:1022900001108009232148430790FFE70798013880
:1022A00007900798D0B9FFE70A99002008630A9AB7
:1022B000202182F83D100A9981F83E000A99086CA5
:1022C00040F02000086462B6FFE70A99002081F818
:1022D0003C00FFE701208DF82F008AE0FFE70A9815
:1022E0000068406900F004010020B0EB910FD5D0E8
:1022F000FFE70A980168086840F4007008600A98CF
:10230000006800690A99496A08700A99486A0130A8
:1023100048620A99088D013808850A99488D013864
:10232000488562B60A98006800690A99496A087087
:102330000A99486A013048620A99088D013808856F
:102340000A99488D01384885FFE7FFE73AE00A9887
:102350001499069A01F004FE20B1FFE701208DF8E0
:102360002F0046E00A98006800690A99496A0870D7
:102370000A99486A013048620A99088D013808852F
:102380000A99488D013848850A980068406900F02C
:1023900004010120B0EB910F13D1FFE70A98006808
:1023A00000690A99496A08700A99486A01304862C6
:1023B0000A99088D013808850A99488D01384885A1
:1023C000FFE7FFE7B1E60A99202081F83D000A996E
:1023D000002081F83E00FFE70A99002081F83C00C8
:1023E000FFE700208DF82F0003E002208DF82F007A
:1023F000FFE79DF82F0010B010BD000010B588B0A9
:1024000084460C980B98DDF828E0CDF818C0ADF89C
:102410001610ADF81420ADF81230ADF81000FFF72B
:1024200031FC0390069890F83D00202840F0E680AB
:10243000FFE7069803996A4611600221C0F2100175
:102440000122192301F0A4FC20B1FFE702208DF83E
:102450001F00D7E0FFE7069890F83C00012804D160
:10246000FFE702208DF81F00CCE00699012081F8DB
:102470003C00FFE7FFE7069800680068C00738B92E
:10248000FFE706980168086840F001000860FFE770
:1024900006980168086820F4006008600699212009
:1024A00081F83D000699402081F83E000699002001
:1024B00008640A9806994862BDF810000699488594
:1024C0000698408D0699088506990020CFF6FF7082
:1024D000C8620698BDF81610BDF81420BDF8123079
:1024E000DDF830C0039CEE46CEF80440CEF800C0C4
:1024F00001F064FB20B1FFE701208DF81F0081E0AF
:10250000FFE70698008D002849D0FFE706980C9950
:10251000039A01F089FD80B1FFE70698006C04285A
:1025200007D1FFE706980168086840F4007008606A
:10253000FFE701208DF81F0064E006980168406AFB
:10254000007808610699486A013048620699088D4A
:10255000013808850699488D013848850698006835
:10256000406900F004010120B0EB910F16D1FFE7A4
:102570000698008D90B1FFE706980168406A0078E0
:1025800008610699486A013048620699088D013849
:1025900008850699488D01384885FFE7B1E7069818
:1025A0000C99039A01F0A8FB80B1FFE70698006C34
:1025B000042807D1FFE706980168086840F4007016
:1025C0000860FFE701208DF81F001BE006980168F6
:1025D000086840F4007008600699202081F83D00EA
:1025E0000699002081F83E00FFE70699002081F857
:1025F0003C00FFE700208DF81F0003E002208DF86B
:102600001F00FFE79DF81F0008B010BD80B588B01F
:1026100007900020069005900490039007980068AA
:1026200045F20041C4F2000188422CD1FFE7FFE7E8
:1026300041F21800C4F20200016841F00801016093
:10264000006800F0080002900298FFE7C0200390A5
:10265000122004900320069040F60040C4F20100CE
:1026600003A9FFF77FF9FFE741F21C00C4F2020063
:10267000016841F400110160006800F4001001904D
:102680000198FFE7FFE708B080BD000040F29C0022
:10269000C2F20000027840F2C021C2F200010868D4
:1026A000104408607047000080B542F20001C4F297
:1026B0000201086840F010000860032000F096F85E
:1026C0000F2000F005F800F03BF8002080BD00006E
:1026D00080B582B0009040F29800C2F2000000681D
:1026E00040F29C01C2F200010A784FF47A71B1FB0A
:1026F000F2F1B0FBF1F000F087FD20B1FFE701201F
:102700008DF8070018E000980F280DD8FFE7009912
:102710004FF0FF30002200F04FF8009840F2A00187
:10272000C2F20001086003E001208DF8070003E019
:1027300000208DF80700FFE79DF8070002B080BD7C
:1027400083B0FFE741F21800C4F20200016841F0D3
:1027500001010160006800F0010002900298FFE7AB
:10276000FFE741F21C00C4F20200016841F0805111
:102770000160006800F0805001900198FFE7FFE7DA
:102780000421C4F2010108680090009820F0E06084
:102790000090009840F00070009000980860FFE7FB
:1027A00003B0704780B582B08DF807009DF907002F
:1027B00002F09AFA02B080BD80B586B08DF817009D
:1027C000049103920020029002F0A6FA02909DF973
:1027D0001700019002980499039A02F017F8014635
:1027E000019802F0A1FA06B080BD000080B582B069
:1027F0000190019802F0BAFA02B080BD80B584B0B1
:1028000002900191029820B9FFE701208DF80F0096
:102810001BE1019842F20001C4F20201096801F0D3
:102820000701884216D9FFE742F20000C4F2020015
:10283000016821F00701019A11430160006800F06E
:1028400007000199884204D0FFE701208DF80F00AE
:10285000FBE0FFE702980078800700282AD5FFE711
:10286000029800784007002809D5FFE741F20401EB
:10287000C4F20201086840F4E0600860FFE70298D3
:1028800000780007002809D5FFE741F20401C4F2EF
:102890000201086840F460500860FFE741F204015B
:1028A000C4F20201086820F0F000029A9268104316
:1028B0000860FFE702980078C007002860D0FFE7B3
:1028C0000298406801280ED1FFE741F20000C4F2EF
:1028D000020000688003002804D4FFE701208DF87F
:1028E0000F00B2E021E00298406802280ED1FFE715
:1028F00041F20000C4F2020000688001002804D404
:10290000FFE701208DF80F009FE00DE041F200008D
:10291000C4F2020000688007002804D4FFE7012009
:102920008DF80F0091E0FFE7FFE741F20401C4F2E8
:102930000201086820F00300029A52681043086000
:10294000FFF7A0F90090FFE741F20400C4F2020093
:10295000006800F00C0002994968B0EB810F0ED0BE
:10296000FFE7FFF78FF90099401A41F28931884259
:1029700004D3FFE703208DF80F0066E0E4E7FFE7EC
:10298000019842F20001C4F20201096801F0070156
:10299000884216D2FFE742F20000C4F2020001684A
:1029A00021F00701019A11430160006800F007005F
:1029B0000199884204D0FFE701208DF80F0044E020
:1029C000FFE702980078400700280CD5FFE741F2A6
:1029D0000401C4F20201086820F4E060029AD2689F
:1029E00010430860FFE702980078000700280DD523
:1029F000FFE741F20401C4F20201086820F46050CC
:102A0000029A126940EAC2000860FFE700F04CF841
:102A100041F20401C4F202010968C9B20A0946F68A
:102A2000C451C0F60001895CC84040F29801C2F26E
:102A30000001086040F2A000C2F200000068FFF749
:102A400047FE00208DF80F00FFE79DF80F0004B04F
:102A500080BD000040F29800C2F20000006870479C
:102A600080B5FFF7F7FF41F20401C4F202010968E3
:102A7000C1F3022246F6D451C0F60001895CC84079
:102A800080BD000080B5FFF7E5FF41F20401C4F20C
:102A900002010968C1F3C22246F6D451C0F6000112
:102AA000895CC84080BD00008BB040F60E70C1F25A
:102AB00010000A9040F60A30C0F60C50099040F21F
:102AC0000670C0F60810089040F20230C0F20450C0
:102AD000079040F20120ADF81A0000200590049004
:102AE00003900290019041F20400C4F202000068D9
:102AF0000590059800F00C0001460091E0B3FFE757
:102B00000098042804D0FFE70098082806D034E095
:102B100041F20020C0F27A00019034E00598C0F341
:102B2000834107A8405C02909DF81600C007C0B121
:102B3000FFE741F20400C4F20200006800F4003133
:102B40000DF11A0040EA514000780490029841F2D9
:102B50000021C0F27A0148430499B0FBF1F00390E0
:102B600007E0029840F60011C0F23D01484303908F
:102B7000FFE70398019006E0FFE741F20020C0F272
:102B80007A000190FFE701980BB0704780B586B0DE
:102B90000490049820B9FFE701208DF817002EE378
:102BA00004980078C007002800F0AE80FFE741F2EB
:102BB0000400C4F20200006800F00C00042813D0E6
:102BC000FFE741F20400C4F20200006800F00C00CC
:102BD00008281BD1FFE741F20400C4F2020000689C
:102BE000C003002812D5FFE741F20000C4F2020042
:102BF00000688003002808D5FFE70498406820B9E2
:102C0000FFE701208DF81700F9E27CE0FFE7049868
:102C10004068B0F5803F09D1FFE741F20001C4F2FE
:102C20000201086840F48030086032E0049840688F
:102C300068B9FFE741F20001C4F20201086820F41C
:102C400080300860086820F48020086020E0049844
:102C50004068B0F5A02F0DD1FFE741F20001C4F2AA
:102C60000201086840F480200860086840F4803061
:102C700008600CE041F20001C4F20201086820F48F
:102C800080300860086820F480200860FFE7FFE7D4
:102C9000FFE7FFE704984068D0B1FFE7FEF7F2FFD7
:102CA0000390FFE741F20000C4F2020000688003D5
:102CB00000280CD4FFE7FEF7E5FF0399401A6528CA
:102CC00004D3FFE703208DF8170098E2EAE719E044
:102CD000FEF7D8FF0390FFE741F20000C4F20200C4
:102CE0000068800300280CD5FFE7FEF7CBFF0399AF
:102CF000401A652804D3FFE703208DF817007EE211
:102D0000EAE7FFE7FFE7FFE704980078800700287D
:102D100040F18D80FFE741F20400C4F20200006838
:102D200010F00C0F13D0FFE741F20400C4F20200D0
:102D3000006800F00C00082829D1FFE741F20400E8
:102D4000C4F202000068C003002820D4FFE741F26B
:102D50000000C4F2020000688007002809D5FFE7E0
:102D600004980069012804D0FFE701208DF81700BE
:102D700045E241F20001C4F20201086820F0F800C7
:102D8000049A526940EAC2000860FFE74EE00498E6
:102D9000006958B3FFE70021C4F242210120086016
:102DA000FEF770FF0390FFE741F20000C4F202005B
:102DB0000068800700280CD4FFE7FEF763FF039943
:102DC000401A032804D3FFE703208DF8170016E20A
:102DD000EAE741F20001C4F20201086820F0F800BD
:102DE000049A526940EAC20008601EE00021C4F261
:102DF000422100200860FEF745FF0390FFE741F203
:102E00000000C4F202000068800700280CD5FFE72C
:102E1000FEF738FF0399401A032804D3FFE7032085
:102E20008DF81700EBE1EAE7FFE7FFE7FFE704981B
:102E300000780007002848D5FFE70498806918B398
:102E4000FFE740F28041C4F2422101200860FEF712
:102E500019FF0390FFE741F22400C4F2020000686A
:102E6000800700280CD4FFE7FEF70CFF0399401AF7
:102E7000032804D3FFE703208DF81700BFE1EAE73A
:102E8000012001F0FBFC1FE040F28041C4F242212E
:102E900000200860FEF7F6FE0390FFE741F22400F1
:102EA000C4F202000068800700280CD5FFE7FEF797
:102EB000E9FE0399401A032804D3FFE703208DF8A5
:102EC00017009CE1EAE7FFE7FFE704980078400776
:102ED000002840F1D880FFE700208DF8070041F27C
:102EE0001C00C4F202000068C000002813D4FFE7F1
:102EF000FFE741F21C00C4F20200016841F080517A
:102F00000160006800F0805000900098FFE7012009
:102F10008DF80700FFE747F20000C4F200000068E8
:102F2000C005002822D4FFE747F20001C4F20001E7
:102F3000086840F480700860FEF7A4FE0390FFE785
:102F400047F20000C4F200000068C00500280CD45D
:102F5000FFE7FEF797FE0399401A652804D3FFE7C1
:102F600003208DF817004AE1EAE7FFE7FFE704983E
:102F7000C068012809D1FFE741F22001C4F2020133
:102F8000086840F00100086031E00498C06868B942
:102F9000FFE741F22001C4F20201086820F00100BD
:102FA0000860086820F0040008601FE00498C0680A
:102FB00005280DD1FFE741F22001C4F202010868A3
:102FC00040F004000860086840F0010008600CE070
:102FD00041F22001C4F20201086820F001000860FB
:102FE000086820F004000860FFE7FFE7FFE7FFE75D
:102FF0000498C068E0B1FFE7FEF744FE0390FFE7E6
:1030000041F22000C4F202000068800700280ED4BC
:10301000FFE7FEF737FE0399401A41F289318842F3
:1030200004D3FFE703208DF81700E8E0E8E71BE092
:10303000FEF728FE0390FFE741F22000C4F20200F1
:103040000068800700280ED5FFE7FEF71BFE0399F6
:10305000401A41F28931884204D3FFE703208DF8FA
:103060001700CCE0E8E7FFE79DF80700012809D149
:10307000FFE741F21C01C4F20201086820F0805011
:103080000860FFE7FFE70498C069002800F0B380FC
:10309000FFE741F20400C4F20200006800F00C00F7
:1030A000082800F08280FFE70498C06902285CD1FC
:1030B000FFE76021C4F2422100200860FEF7E2FD34
:1030C0000390FFE741F20000C4F2020000688001B3
:1030D00000280CD5FFE7FEF7D5FD0399401A032819
:1030E00004D3FFE703208DF8170088E0EAE704988F
:1030F000006AB0F5803F0CD1FFE741F20401C4F251
:103100000201086820F40030049A926810430860B5
:10311000FFE741F20401C4F20201086820F47410D0
:10312000049B1A6A5B6A1A43104308606021C4F268
:10313000422101200860FEF7A5FD0390FFE741F260
:103140000000C4F202000068800100280CD4FFE7F0
:10315000FEF798FD0399401A032804D3FFE70320E4
:103160008DF817004BE0EAE71EE06021C4F242212F
:1031700000200860FEF786FD0390FFE741F20000A3
:10318000C4F202000068800100280CD5FFE7FEF7BA
:1031900079FD0399401A032804D3FFE703208DF833
:1031A00017002CE0EAE7FFE724E00498C069012853
:1031B00004D1FFE701208DF8170020E041F2040060
:1031C000C4F2020000680290029800F48030049972
:1031D000096A884208D1FFE7029800F47010049948
:1031E000496A884204D0FFE701208DF8170006E005
:1031F000FFE7FFE7FFE700208DF81700FFE79DF8E6
:10320000170006B080BD000080B582B00190019823
:1032100001F054FB02B080BD85B003900291FFE73E
:10322000039890F83C00012804D1FFE702208DF8B4
:1032300013005BE00399012081F83C00FFE7FFE702
:103240000399022081F83D000398006840680190CE
:103250000398006880680090019820F07000019049
:103260000298016801980843019001980399096840
:1032700048600398006842F60041C4F201018842A8
:1032800018D0FFE703980068B0F1804F12D0FFE735
:103290000398006840F20041C4F20001884209D05E
:1032A000FFE70398006840F60001C4F2000188427D
:1032B0000ED1FFE7009820F080000090029841684E
:1032C0000098084300900098039909688860FFE718
:1032D0000399012081F83D00FFE70399002081F860
:1032E0003C00FFE700208DF81300FFE79DF8130076
:1032F00005B0704780B582B00090009820B9FFE714
:1033000001208DF807003FE0009890F83D0040B99B
:10331000FFE70099002081F83C00009800F038F8A1
:10332000FFE70099022081F83D00009951F8040B55
:1033300001F032FB0099012081F84600FFE7009977
:10334000012081F83E00009981F83F00009981F842
:103350004000009981F84100FFE7FFE70099012054
:1033600081F84200009981F84300009981F84400F7
:10337000009981F84500FFE70099012081F83D00A0
:1033800000208DF80700FFE79DF8070002B080BD20
:1033900080B584B0039003980068B0F1804F19D1D4
:1033A000FFE7FFE741F21C00C4F20200016841F0B0
:1033B00001010160006800F0010002900298FFE73F
:1033C0001C20019000221146FFF7F6F90198FFF743
:1033D000E9F9FFE704B080BD83B00190019890F84F
:1033E0003D00012804D0FFE701208DF80B0047E0E5
:1033F0000199022081F83D0001980168C86840F0F9
:103400000100C8600198006842F60041C4F2010161
:10341000884218D0FFE701980068B0F1804F12D0C1
:10342000FFE70198006840F20041C4F200018842C1
:1034300009D0FFE70198006840F60001C4F20001DE
:10344000884212D1FFE701980068806800F0070009
:1034500000900098062807D0FFE7019801680868E7
:1034600040F001000860FFE706E001980168086885
:1034700040F001000860FFE700208DF80B00FFE737
:103480009DF80B0003B0704780B586B0049003919F
:10349000FFE7049890F83C00012804D1FFE70220E0
:1034A0008DF81700A7E00499012081F83C00FFE7A0
:1034B000FFE70499022081F83D00049800688068C5
:1034C0000290029820F077000290029820F47F404A
:1034D0000290029804990968886003980068019036
:1034E000002872D0FFE7019810286ED0FFE70198FE
:1034F00020286AD0FFE70198302866D0FFE70198BE
:10350000402855D0FFE70198502837D0FFE70198B1
:10351000602840D0FFE7019870280BD0FFE70198A2
:10352000B0F5805F05D0FFE70198B0F5005F16D0D9
:1035300052E052E004980068039B5A689968DB687F
:1035400001F0A2FA0498006880680290029840F0A6
:103550007700029002980499096888603DE0049819
:103560000068039B5A689968DB6801F08DFA04983B
:103570000168886840F4804088602EE00498006804
:10358000039A5168D26801F0AFFA0498006850219C
:1035900001F094FA21E004980068039A5168D26817
:1035A00001F0CAFA04980068602101F087FA14E07B
:1035B00004980068039A5168D26801F095FA04985B
:1035C0000068402101F07AFA07E004980068039946
:1035D000096801F073FA00E0FFE70499012081F81F
:1035E0003D00FFE70499002081F83C00FFE7002040
:1035F0008DF81700FFE79DF8170006B080BD0000AA
:1036000080B582B00190019800680069C00780B160
:10361000FFE701980068C068C00748B1FFE701985C
:1036200001686FF001000861019800F005F8FFE7FC
:10363000FFE702B080BD000080B584B0039040F287
:10364000E010C2F20000019040F22011C2F200012D
:103650000291FDF79BFF01980299FDF743FF019846
:10366000029900F02BFD04B080BD000080B582B04F
:103670000090009820B9FFE701208DF807003EE098
:103680000098806908B1FFE700E0FFE7009890F834
:103690003D0040B9FFE70099002081F83C00009808
:1036A00000F032F8FFE70099242081F83D000098EF
:1036B0000168C86820F40050C860009801F066FAFC
:1036C00000980168086920F490400861009801683A
:1036D000486920F02A00486100980168C86840F4F1
:1036E0000050C860009900200864009A202182F8E8
:1036F0003D10009A82F83E108DF80700FFE79DF814
:10370000070002B080BD000080B58AB0099000209B
:1037100008900790069005900998006844F20041CF
:10372000C4F20001884237D1FFE7FFE741F21C00F5
:10373000C4F20200016841F400310160006800F445
:10374000003004900498FFE7FFE741F21800C4F24C
:103750000200016841F004010160006800F004000B
:1037600003900398FFE704200590022006900320B1
:10377000089040F60000C4F20100019005A90291F2
:10378000FEF7F0F8019802990822059200220692AD
:103790000792FEF7E7F8FFE70AB080BD80B58AB070
:1037A00008900791ADF81A20059300200290089820
:1037B00090F83D00202840F09080FFE7079820B166
:1037C000FFE7BDF81A0020B9FFE701208DF82700B8
:1037D00087E0FFE7089890F83C00012804D1FFE754
:1037E00002208DF827007CE00899012081F83C0038
:1037F000FFE7FFE70899002008640899212081F875
:103800003D00FEF73FFA0290BDF81A00089988843F
:10381000BDF81A000899C88408988068B0F5805FE0
:1038200009D1FFE70898006928B9FFE70020049054
:103830000798039004E00798049000200390FFE7A6
:10384000FFE70899002081F83C00FFE7FFE70898B0
:10385000C08C58B3FFE70898029B05996A4611602F
:103860008021002201F0F0F920B1FFE703208DF85C
:10387000270036E0049858B9FFE7039800886FF3F3
:103880005F2008990968486003980230039008E0B7
:1038900004980078089909684860049801300490F9
:1038A000FFE70899C88C0138C884D0E70898029BC4
:1038B00005996A4611604021002201F0C5F920B146
:1038C000FFE703208DF827000BE00899202081F8FE
:1038D0003D0000208DF8270003E002208DF827002E
:1038E000FFE79DF827000AB080BD000080B58AB0D0
:1038F000099070208DF8230009986A46642105918B
:1039000091600123079353600DF12301039111602E
:103910003D21049100220692FEF770FD039A04995E
:10392000079BDDF814E0A0208DF823000998EC46F1
:10393000CCF808E0CCF80430CCF800201A46FEF7AA
:103940005DFD039A0499079BDDF814E006988DF855
:1039500023000998EC46CCF808E0CCF80430CCF809
:1039600000200222FEF74AFD07980AB080BD000041
:10397000FFE7FEE782B0009000980068406900F41D
:1039800080610120B0EB912F1ED1FFE70098016804
:103990006FF480604861009900200863009A20213C
:1039A00082F83D10009981F83E000099086C40F0C3
:1039B00004000864FFE70099002081F83C00FFE75D
:1039C00001208DF8070003E000208DF80700FFE7D5
:1039D0009DF8070002B0704780B586B0DDF824C0BE
:1039E000DDF820C00490ADF80E10ADF80C20ADF855
:1039F0000A3004980168086840F480600860049800
:103A00000168086840F4807008600498089B099970
:103A10006A4611604FF00111002200F0B9F980B13F
:103A2000FFE7049800680068C005002805D5FFE797
:103A300004994FF400700864FFE703208DF8170025
:103A4000B7E0BDF80E0000F0FE00049909680861B7
:103A50000498089A099B0221C0F2010100F0F8F9CC
:103A600020B1FFE701208DF81700A2E0FFE700205A
:103A7000019004980068406901900498006880698A
:103A800001900198FFE704980899099A00F0CCFA90
:103A900080B1FFE70498006C042807D1FFE7049881
:103AA0000168086840F400700860FFE701208DF8A5
:103AB00017007EE0BDF80A00012806D1FFE79DF857
:103AC0000C0004990968086121E09DF80D00049933
:103AD0000968086104980899099A00F0A5FA80B16C
:103AE000FFE70498006C042807D1FFE704980168F9
:103AF000086840F400700860FFE701208DF81700A7
:103B000057E09DF80C00049909680861FFE70498E4
:103B10000899099A00F088FA80B1FFE70498006CD0
:103B2000042807D1FFE704980168086840F4007092
:103B30000860FFE701208DF817003AE0049801685B
:103B4000086840F4807008600498089B09996A46E8
:103B500011604FF00111002200F01AF980B1FFE767
:103B6000049800680068C005002805D5FFE704999F
:103B70004FF400700864FFE703208DF8170018E089
:103B80009DF80E0040F0010004990968086104984E
:103B9000089A099B0221C0F2010100F059F920B1F5
:103BA000FFE701208DF8170003E000208DF81700D3
:103BB000FFE79DF8170006B080BD000080B586B015
:103BC000DDF824C0DDF820C00490ADF80E10ADF88B
:103BD0000C20ADF80A3004980168086840F4807041
:103BE00008600498089B09996A4611604FF001111A
:103BF000002200F0CDF880B1FFE70498006800686B
:103C0000C005002805D5FFE704994FF4007008644B
:103C1000FFE703208DF8170069E0BDF80E0000F003
:103C2000FE000499096808610498089A099B02211A
:103C3000C0F2010100F00CF920B1FFE701208DF87E
:103C4000170054E0FFE700200190049800684069E5
:103C5000019004980068806901900198FFE704983A
:103C60000899099A00F0E0F980B1FFE70498006C28
:103C7000042807D1FFE704980168086840F4007041
:103C80000860FFE701208DF8170030E0BDF80A005A
:103C9000012806D1FFE79DF80C0004990968086126
:103CA00021E09DF80D0004990968086104980899BD
:103CB000099A00F0B9F980B1FFE70498006C042874
:103CC00007D1FFE704980168086840F400700860B5
:103CD000FFE701208DF8170009E09DF80C0004991A
:103CE00009680861FFE700208DF81700FFE79DF8DD
:103CF000170006B080BD000080B584B0029001912D
:103D00000092FFE702980068406900F0040100207B
:103D1000B0EB910F33D1FFE70298FFF72BFE20B1F4
:103D2000FFE701208DF80F002DE00198013028B346
:103D3000FFE7FDF7A7FF0099401A0199884203D8D1
:103D4000FFE70198C8B9FFE7029900200863029ACB
:103D5000202182F83D10029981F83E000299086CFA
:103D600040F020000864FFE70299002081F83C0041
:103D7000FFE701208DF80F0005E0FFE7C2E7002014
:103D80008DF80F00FFE79DF80F0004B080BD000024
:103D900080B586B0DDF820C0049003918DF80B202B
:103DA0000193FFE79DF80E0001280CD1FFE704986E
:103DB00000684069BDF80C100840401AB0FA80F065
:103DC000400900900BE0049800688069BDF80C1071
:103DD0000840401AB0FA80F040090090FFE70098D0
:103DE0009DF80B1088422AD1FFE70198013028B3D3
:103DF000FFE7FDF747FF0899401A0199884203D869
:103E0000FFE70198C8B9FFE7049900200863049A06
:103E1000202182F83D10049981F83E000499086C35
:103E200040F020000864FFE70499002081F83C007E
:103E3000FFE701208DF8170005E0FFE7B2E700205B
:103E40008DF81700FFE79DF8170006B080BD000051
:103E500080B586B00490039102920193FFE79DF82C
:103E60000E0001280CD1FFE7049800684069BDF8F6
:103E70000C100840401AB0FA80F0400900900BE0A6
:103E8000049800688069BDF80C100840401AB0FA28
:103E900080F040090090FFE70098002858D1FFE724
:103EA00004980068406900F480610120B0EB912F14
:103EB00024D1FFE704980168086840F400700860A6
:103EC000049801686FF480604861049900200863D9
:103ED000049A202182F83D10049981F83E0004994B
:103EE000086C40F004000864FFE70499002081F8A2
:103EF0003C00FFE701208DF817002DE0029801300B
:103F000028B3FFE7FDF7BEFE0199401A02998842E7
:103F100003D8FFE70298C8B9FFE7049900200863B7
:103F2000049A202182F83D10049981F83E000499FA
:103F3000086C40F020000864FFE70499002081F835
:103F40003C00FFE701208DF8170005E0FFE786E75A
:103F500000208DF81700FFE79DF8170006B080BD20
:103F600080B584B0029001910092FFE7029800684A
:103F7000406900F040010020B0EB911F4BD1FFE7FA
:103F800002980068406900F010010120B0EB111F99
:103F90001CD1FFE7029801686FF010004861029998
:103FA00000200863029A202182F83D10029981F8CE
:103FB0003E000299086C0864FFE70299002081F82E
:103FC0003C00FFE701208DF80F0028E0FDF75AFEC6
:103FD0000099401A0199884203D8FFE70198C8B9AF
:103FE000FFE7029900200863029A202182F83D1021
:103FF000029981F83E000299086C40F020000864A4
:10400000FFE70299002081F83C00FFE701208DF8CE
:104010000F0004E0AAE700208DF80F00FFE79DF8ED
:104020000F0004B080BD000080B584B00290019103
:104030000092FFE7029800684069C1B20020B0EB2F
:10404000D11F33D1FFE70298FFF794FC20B1FFE7BF
:1040500001208DF80F002DE00198013028B3FFE713
:10406000FDF710FE0099401A0199884203D8FFE736
:104070000198C8B9FFE7029900200863029A20213D
:1040800082F83D10029981F83E000299086C40F0D8
:1040900020000864FFE70299002081F83C00FFE758
:1040A00001208DF80F0005E0FFE7C3E700208DF841
:1040B0000F00FFE79DF80F0004B080BD10B592B06F
:1040C0001190109140F20001C2F2000108684968A5
:1040D0000F910E901099B1F90600B1F90A104943F9
:1040E00000FB001002F088F901F0E2FE0B910A904B
:1040F0000A980B9900231A4602F0ECFCC0B9FFE7BE
:104100001098B0F9080002F077F90A9A0B9B01F0B9
:10411000DDFF01F0EFFC4AF6E312C1F647224AF256
:10412000DC53C4F24C0302F0F7F90D910C9003E05C
:1041300000200D900C90FFE71099B1F90600B1F93D
:104140000A100591404202F057F90246059806927E
:10415000079102F051F9024606980B46079901F0C3
:10416000D9FD4AF6E312C1F647224AF2DC53C4F203
:104170004C0302F0D1F9099108900898099900229E
:1041800048F20003CCF2560302F0B9FC70B9FFE725
:104190001099D1F8B000D1F8B410002248F2000311
:1041A000C4F2560302F0A4FCC8B9FFE708980999C5
:1041B000002248F20003C4F2560302F0A7FCF0B953
:1041C000FFE71099D1F8B000D1F8B410002248F2FE
:1041D0000003CCF2560302F092FC80B9FFE7089886
:1041E000099A40F25001C2F20001CA618861089840
:1041F000099A1099C1F8B420C1F8B0001CE01099D8
:10420000086CD1F844C0089A099BDDF838E00F9C8F
:104210006946CC60C1F808E0C1F804C0086040F20B
:104220005000C2F2000000F03DF80A461099C1F8B3
:10423000B420C1F8B000FFE71099D1F8B000D1F870
:10424000B41021F00041002248F20003C4F25603EA
:1042500002F05CFC40B9FFE710998A6BC86B80F0F4
:1042600000408A63C863FFE71099086CD1F844C026
:104270000C9A0D9BDDF838E00F9C6946CC60C1F8C4
:1042800008E0C1F804C0086040F20800C2F2000073
:1042900000F008F80A461099C1F8AC20C1F8A8004F
:1042A00012B010BDB0B5BCB09E46944604464399CA
:1042B0004298419B409A3B94CDF8E4E0CDF8E0C0B1
:1042C0003793369235913490369837993B9B1A6ADA
:1042D0005B6A02F011FB3391329034983599329A2F
:1042E000339BDDF8ECC0CDF80CC0DCF818E0CDF85D
:1042F00004E0DCF81CC0CDF808C002F00DF9019A0A
:10430000029B01F027FE0A460399CA61886134982E
:10431000069035990791DDF8ECC0CDF828C0DCF89F
:104320004020DCF84430DCF830E0CDF810E0DCF878
:1043300034C0CDF814C002F0EFF8049A059B02F0E7
:10434000DBFA0A9B9A6BDB6B02F0D6FADDF828C029
:10435000DCF80020DCF80430DCF828E0CDF820E0C0
:10436000DCF82CC0CDF824C001F0F4FD024606981C
:104370000B46079902F0D0F8089A099B01F0EAFD74
:104380000A460A99CA628862349835993B9B0D9314
:104390001A6B0B925A6B0C921A6C5B6C02F0BCF8A5
:1043A00002460B980B460C9902F0A6FA0A460D99A4
:1043B0004A630863349835993B9B10939A6B0E922D
:1043C000DA6B0F921A6C5B6C02F0A6F802460E983C
:1043D0000B460F9902F090FA0A461099CA63886357
:1043E000DDF8ECC0CDF84CC0349A359BDCF8080001
:1043F000DCF80C10DCF840E0CDF844E0DCF844C018
:10440000CDF848C002F088F8119A129B01F0A2FD85
:104410000A4613994A6408643B990A694B69886A99
:10442000C96A01F097FD319130903B99886AC96A59
:10443000309A319B01F04AFE2D912C903B99886B6C
:10444000C96B309A319B01F041FE2F912E90389824
:1044500039993B9B9A69DB6902F04EFA2B912A90BD
:104460002C982D992A9A2B9BDDF8ECC0CDF858C0DA
:10447000DCF818E0CDF850E0DCF81CC0CDF854C0F2
:1044800002F04AF8149A159B01F064FD0A46169949
:10449000CA6188612E982F992A9A2B9BDDF8ECC06F
:1044A000CDF864C0DCF820E0CDF85CE0DCF824C096
:1044B000CDF860C002F030F8179A189B01F04AFD61
:1044C0000A4619994A6208623B99886AC96A299121
:1044D00028903B99086B496B279126902C982D9931
:1044E000289A299BDDF8ECC0CDF870C0DCF828E0F4
:1044F000CDF868E0DCF82CC0CDF86CC002F00CF808
:1045000002461A980B461B9902F0F6F90A461C99C6
:10451000CA6288622C982D99269A279BDDF8ECC0F8
:10452000CDF87CC0DCF830E0CDF874E0DCF834C0C5
:10453000CDF878C001F0F0FF02461D980B461E9999
:1045400002F0DAF90A461F994A6308632E982F99F8
:10455000289A299BDDF8ECC0CDF888C0DCF838E05B
:10456000CDF880E0DCF83CC0CDF884C001F0D4FF89
:10457000024620980B46219902F0BEF90A4622997C
:10458000CA6388632E982F99269A279BDDF8ECC082
:10459000CDF894C0DCF840E0CDF88CE0DCF844C005
:1045A000CDF890C001F0B8FF024623980B4624993D
:1045B00002F0A2F90A4625994A6408643B99886981
:1045C000C9693CB0B0BD000080B58AB009900F2029
:1045D0008DF8230009986A466421059191600123B2
:1045E000079353600DF1230103911160D3210491CE
:1045F0002022FDF703FF039A0499079BDDF814E0DE
:10460000002006908DF823000998EC46CCF808E0CD
:10461000CCF80430CCF800202322FDF7EFFE039AFB
:104620000499079BDDF814E006988DF8230009989B
:10463000EC46CCF808E0CCF80430CCF8002024227A
:10464000FDF7DCFE07980AB080BD000080B588B099
:1046500000200790069005900490FFE741F21800B3
:10466000C4F20200016841F020010160006800F01E
:10467000200003900398FFE7FFE741F21800C4F21F
:104680000200016841F008010160006800F00800C4
:1046900002900298FFE7FFE741F21800C4F202001F
:1046A000016841F004010160006800F0040001901D
:1046B0000198FFE7FFE741F21800C4F20200016829
:1046C00041F010010160006800F0100000900098B7
:1046D000FFE74FF400500490012005900020069061
:1046E0000220079041F20000C4F2010004A9FDF786
:1046F00039F908B080BD000080B582B040F2E0100A
:10470000C2F20000019045F20041C4F200010160D4
:1047100048F2A061C0F20101416000218160C160E6
:104720004FF48042026141618161C1610162FDF724
:10473000AFFA18B1FFE7FDF7EBF8FFE702B080BD75
:1047400080B588B0002101910791069105910491EF
:104750000391029140F23420C2F200004FF08042F7
:1047600002604FF43472426081604FF47A72C2602A
:10477000016180218161FEF7BDFD18B1FFE7FDF702
:10478000C7F8FFE74FF48050049040F23420C2F2A3
:10479000000004A9FEF778FE18B1FFE7FDF7B8F8AE
:1047A000FFE700200290039040F23420C2F20000A4
:1047B00002A9FEF731FD18B1FFE7FDF7A9F8FFE701
:1047C00008B080BD80B582B040F27C20C2F200000B
:1047D000019044F20041C4F2000101604FF4E13164
:1047E000416000218160C16001610C2242618161F0
:1047F000C161FEF73BFF18B1FFE7FDF789F8FFE75E
:1048000002B080BDFFE7FEE7FFE7FEE788B0079054
:1048100006910592079800F0070004900498C0F1F3
:104820000700052803D3FFE70420019004E0049863
:10483000C0F107000190FFE701980390049804304D
:10484000062803D8FFE70020009003E0049803380F
:104850000090FFE70098029006980399012202FA5F
:1048600001F101390840029B984005999A40013AAC
:104870001140084308B070477047000082B00190B3
:10488000019840F29801C2F200010968C90844F693
:10489000D352C1F26202A1FB022189094843009070
:1048A000FFE700BFFFE70098411E00910028F8D104
:1048B000FFE702B0704700007047000080B582B08B
:1048C000009000980138B0F1807F03D3FFE701200A
:1048D000019019E0009801384EF21401CEF2000167
:1048E00008604FF0FF300F2100F01EFA4EF2180161
:1048F000CEF20001002008604EF21002CEF200025B
:10490000072111600190FFE7019802B080BD00000F
:1049100080B5FDF7BBFE80BD80B590B006A80090C5
:104920002821FBF7FEFC00980023059304930393D2
:1049300002930193012206924FF48031079108936C
:104940000A9202220D920E914FF4E0110F91FEF7A0
:104950001DF918B1FFE7FCF7DBFFFFE70F2001901F
:1049600002210291002003904FF48062049205908E
:1049700001A8FDF743FF18B1FFE7FCF7C9FFFFE708
:1049800010B080BD7047000080B540F23420C2F204
:104990000000FEF735FE80BD83B0029001910298C1
:1049A00000680090029842F60041C4F2010188427A
:1049B00015D0FFE70298B0F1804F10D0FFE70298C2
:1049C00040F20041C4F20001884208D0FFE702989B
:1049D00040F60001C4F2000188420AD1FFE70098C6
:1049E00020F0700000900198416800980843009002
:1049F000FFE7029842F60041C4F20101884215D057
:104A0000FFE70298B0F1804F10D0FFE7029840F224
:104A10000041C4F20001884208D0FFE7029840F646
:104A20000001C4F2000188420AD1FFE7009820F497
:104A3000407000900198C168009808430090FFE71B
:104A4000009820F08000019949690843009000987F
:104A500002990860019880680299C862019800680C
:104A600002998862029842F60041C4F2010188422C
:104A700005D1FFE70198006902990863FFE70299F1
:104A80000120486103B0704785B004900391029201
:104A90000193049880680090009820F47F40009073
:104AA00003980299019A41EA0221014300980843C0
:104AB000009000980499886005B0704783B0029018
:104AC0000191029880680090009820F0700000909A
:104AD00001980099084340F007000090009802995F
:104AE000886003B07047000085B004900391029283
:104AF0000498006A00900499086A20F00100086296
:104B0000049880690190019820F0F00001900299CA
:104B1000019840EA01100190009820F00A000090EE
:104B200003990098084300900198049988610098BF
:104B30000499086205B0704785B004900391029211
:104B40000499086A20F010000862049880690190B6
:104B50000498006A0090019820F470400190029936
:104B6000019840EA01300190009820F0A0000090E8
:104B70000399009840EA0110009001980499886117
:104B800000980499086205B07047000080B584B0B1
:104B9000039003980068006920F44050039A11685C
:104BA000D26810430861039988680A69496910430B
:104BB0000843029003980068C06841F20C61884382
:104BC0000299084303990968C8600398006840691E
:104BD00020F44070039A1168926910434861039869
:104BE000006843F60001C4F20101884204D1FFE7E6
:104BF000FDF748FF019003E0FDF732FF0190FFE76A
:104C0000019819214843039A116852689200B0FB39
:104C1000F2FC48F21F52C5F2EB12ACFB0230430922
:104C2000642003FB10CC322000EB0C10A0FB02022E
:104C3000F02000EA521000EB0310C2F343121044BC
:104C4000886004B080BD000080B586B0DDF820C06B
:104C5000049003918DF80B200193FFE704980068FE
:104C6000006803990840401AB0FA80F040099DF8A6
:104C70000B1088422ED1FFE70898013048B3FFE7B8
:104C8000089840B1FFE7FCF7FDFF0199401A089929
:104C900088421DD9FFE704980168C86820F4D070E5
:104CA000C86004980168486920F0010048610499CF
:104CB000202081F83D00049981F83E00FFE7049927
:104CC000002081F83C00FFE703208DF8170005E085
:104CD000FFE7C3E700208DF81700FFE79DF81700F6
:104CE00006B080BDFFE7FEE781B08DF803009DF9B7
:104CF000030000280ED4FFE79DF9031001F01F0206
:104D0000012090404A094EF20011CEF2000141F814
:104D10002200FFE701B070474EF60C50CEF20000C3
:104D20000068C0F30220704782B08DF80700009140
:104D30009DF9070000280AD4FFE7009800019DF9BB
:104D400007104EF20042CEF2000288540BE00098A9
:104D500000019DF8071001F00F014EF61452CEF23B
:104D600000028854FFE702B07047000083B0029051
:104D7000029800F0070000904EF60C51CEF20001B0
:104D80000868019001984FF6FF02104001900198C9
:104D9000009A40EA02200022C0F2FA521043019029
:104DA0000198086003B070472DE9F04FC5B00020AE
:104DB0004490FDF779FCFFF7AFFDFFF747FCFFF7E5
:104DC000BFFCFFF799FCFFF7FDFC40F2E010C2F2D8
:104DD00000001190FCF744FB1198FFF7F5FB1198C8
:104DE000FEF784FDFCF746FCC820FCF799FD40F275
:104DF0002010C2F20000FCF747FC40F23420C2F25F
:104E00000000FEF7E9FAFFE712A81090C821FBF7AF
:104E100066FA61208DF8480062208DF84900632011
:104E20008DF84A0040F22010C2F200000D90D0F838
:104E30009430D0F89020D0F89810D0F89CE0D0F8BA
:104E4000A040D0F8A450866FC76FD0F88080D0F80B
:104E50008490D0F8A8A0D0F8ACB0D0F8B0C0CDF80D
:104E600038C0D0F8B4C068460F90C0F82CC00E9877
:104E7000DDF83CC0CCF828001098CCF824B0CCF871
:104E800020A0CCF81C90CCF81880CCF81470CCF88A
:104E90001060CCF80C50CCF80840CCF804E0CCF80A
:104EA000001046F6DC51C0F60001FBF7E3F910985C
:104EB000FBF7F6F9109982B240F27C20C2F20000B2
:104EC0004FF48073FEF76AFC9EE7000080B58CB05B
:104ED0000B900A910B986A466421916006215160FB
:104EE0000DF122011160A62132220123FDF722F8E3
:104EF0009DF822009DF8231040EA01200A990A88B3
:104F0000801AC8809DF824009DF8251040EA0120F1
:104F10000A994A88801A08819DF826009DF8271072
:104F200040EA01200A998A88801A48810A980390E9
:104F3000B0F9060001F060FA002205920023C4F2E5
:104F40007003069301F0C2F80A4603994A610861AA
:104F50000A980490B0F9080001F04EFA059A069BF1
:104F600001F0B4F80A460499CA6188610A9807906A
:104F7000B0F90A0001F040FA059A069B01F0A6F884
:104F80000A4607994A6208620CB080BD80B590B0AD
:104F90000F900E9100208DF83100FFE79DF8310051
:104FA000012814D0FFE70F986A466421916001231D
:104FB00053600DF131011160D3212722FCF7BAFFB4
:104FC0009DF83100C0F3C0008DF83100E6E70F987E
:104FD0006A466421069191600123059353600DF1A7
:104FE000320103911160D32104912822FCF7A2FF22
:104FF000039A0499059BDDF818E00F980132EC46FE
:10500000CCF808E0CCF80430CCF800202922FCF7DA
:1050100091FF039A0499059BDDF818E00F9802327E
:10502000EC46CCF808E0CCF80430CCF800202A227A
:10503000FCF780FF039A0499059BDDF818E00F98B0
:105040000332EC46CCF808E0CCF80430CCF8002071
:105050002B22FCF76FFF039A0499059BDDF818E0FB
:105060000F980432EC46CCF808E0CCF80430CCF8C9
:1050700000202C22FCF75EFF039A0499059BDDF8C3
:1050800018E00F980532EC46CCF808E0CCF8043074
:10509000CCF800202D22FCF74DFF9DF832009DF842
:1050A000331040EA01200E990A8D801AC8859DF8B8
:1050B00034009DF8351040EA01200E994A8D801A7F
:1050C00008869DF836009DF8371040EA01200E99B9
:1050D0008A8D801A48860E980790B0F92E0001F04C
:1050E0008BF945F2EC12C1F6B86209924EF685339F
:1050F000C3F681730A9301F00FFA0A460799CA634F
:1051000088630E980890B0F9300001F075F9099A9B
:105110000A9B01F001FA0A4608994A6408640E984D
:105120000B90B0F9320001F067F9099A0A9B01F07F
:10513000F3F90A460B99CA64886410B080BD000078
:1051400080B58AB009900020ADF820000790069045
:1051500005900490039009986A464FF47A71916023
:105160001621516003A91160EE21AA220123FCF748
:10517000E1FE9DF80C109DF80D0040EA012040F280
:105180000811C2F2000108809DF80E109DF80F0072
:1051900040EA012040F20A11C2F2000108809DF8A5
:1051A00010109DF8110040EA012040F20C11C2F2EB
:1051B000000108809DF812109DF8130040EA0120BC
:1051C00040F20E11C2F2000108809DF814109DF803
:1051D000150040EA012040F21011C2F200010880DF
:1051E0009DF816109DF8170040EA012040F21211B8
:1051F000C2F2000108809DF818109DF8190040EADD
:10520000012040F21411C2F2000108809DF81A102A
:105210009DF81B0040EA012040F21611C2F2000185
:1052200008809DF81C109DF81D0040EA012040F206
:10523000D811C2F2000108809DF81E109DF81F00D1
:1052400040EA012040F2DA11C2F2000108809DF824
:1052500020109DF8210040EA012040F2DC11C2F24A
:10526000000108800AB080BD5FEA400C08BF91F0E1
:10527000000F4FEA8C234FEAC12243EA51514FEA13
:105280001C5018BF00F5F0404FEA300018BF41F045
:1052900000415FEA6C5C00F02980BCF1FF3F08BF71
:1052A00040F080407047130C06BF12044FF0100C02
:1052B0004FF0000C130E04BF12020CF1080C130F78
:1052C00004BF12010CF1040C930F04BF92000CF107
:1052D000020CD30F04BF52000CF1010C11464FF029
:1052E0000002A0F11F00A0EB0C00704711F0004F6E
:1052F00008BF704731F000413FF4D5AF0B0C06BF3B
:1053000009044FF0100C4FF0000C0B0E04BF090203
:105310000CF1080C0B0F04BF09010CF1040C8B0FEE
:1053200004BF89000CF1020CCB0F04BF49000CF143
:10533000010CCCF1200322FA03F341EA030102FA43
:105340000CF2A0EB0C0000F10100704723F07F4746
:1053500020F07F4C80EA030000F00040ACEB070334
:1053600003F57C5303F1FF032DE9804909B44FEAAB
:10537000144324EA03484FEA154B25EA0B4E0FF27B
:10538000042606EB13273E7803FB0667C7F50007E4
:1053900007FB06F64FEAD64606F102064FEA5437F7
:1053A00007FB066CCCF1005C4FEA1C472CEA074C6B
:1053B0000CFB06F507FB06F404EB15464FEA9616C0
:1053C00049085FEA320234BF00204FF000404FEA44
:1053D000D13706FB07FC4FEA1C4C0CFB0BF7D21B2A
:1053E00003FB0CF761EB07010CFB0EF7B0EB07407A
:1053F00072EB17420CFB08F734BFA2EB0742B2EB8B
:10540000074261EB17414FEA0C444FEA910706FB54
:1054100007FC4FEA1C4C0CFB0BF7B0EBC74072EBE0
:10542000573203FB0CF734BFA2EBC742B2EBC742C3
:1054300061EB57310CFB0EF7B0EBC70072EB577204
:105440000CFB08F734BFA2EBC702B2EBC70261EB5B
:1054500057714FEA816141EA92114FEA826242EA52
:1054600090124FEA806004EBCC04039F4FEAD137DF
:1054700006FB07FC4FEA1C4C0CFB0BF7D21B03FB93
:105480000CF761EB07010CFB0EF7B0EB074072EB7A
:1054900017420CFB08F734BFA2EB0742B2EB0742FE
:1054A00061EB17414FEA8C5504EB9C244FEA9107BE
:1054B00006FB07FC4FEA1C4C0CFB0BF7B0EBC7409C
:1054C00072EB573203FB0CF734BFA2EBC742B2EBCF
:1054D000C74261EB57310CFB0EF7B0EBC70072EB24
:1054E00057720CFB08F734BFA2EBC702B2EBC7023E
:1054F00061EB57714FEA816141EA92114FEA826292
:1055000042EA90124FEA806015EB4C2544F100040A
:105510004FEAD13706FB07FC4FEA1C4C0CFB0BF79C
:10552000D21B03FB0CF761EB07010CFB0EF7B0EB92
:10553000074072EB17420CFB08F734BFA2EB07429F
:10554000B2EB074261EB17414FEA813141EA9241E8
:105550004FEA823242EA90424FEA80304FEA0C76BC
:1055600015EB1C1544F1000448EA03434EEA0B48CE
:105570004FF0000EB2EB080C71EB030724BF62463C
:1055800039464EEB0E0E4FF0000B001852414941C8
:105590004BEB0B0BB2EB080C71EB03077BF1000B31
:1055A00024BF624639464EEB0E0E4FF0000B00183A
:1055B000524149414BEB0B0BB2EB080C71EB03076B
:1055C0007BF1000B24BF624639464EEB0E0E51EACA
:1055D000020718BF46F0010616EB0E7655F10002E1
:1055E00054F1000103D5BDE88901BDE80088BDE89C
:1055F0008901BDE80048B619524141EB0101A3F110
:105600000103704780807F7E7D7C7B7A7978777616
:1056100076757473727171706F6E6E6D6C6C6B6A8F
:105620006A6968686766666564646363626161602D
:10563000605F5F5E5E5D5D5C5C5B5B5A5A595958AA
:105640005857575656555555545453535252525114
:10565000515050504F4F4F4E4E4D4D4D4C4C4C4B6A
:105660004B4B4A4A4A4949494848484747474746B1
:1056700046464545454444444443434343424242ED
:10568000424141419C46002B30D477002BD04FEA59
:1056900037071CB503B44FF010004FF01001BAF1FA
:1056A000000F06D0BCF1000FDCBF40F0080040F056
:1056B00008014FF000000FBCBDE810400BF1010BDA
:1056C000BBF1010F08BF5FEA170722BF12F1010209
:1056D00011F101014FF0004143F1000300F00040DF
:1056E00043EA00007047F9D35708D0E746EA064678
:1056F0004FEA164613F1400F1FDD13F1200FDFBFF5
:1057000016430A46002120335B42BED0C3F1200776
:1057100046EA06464FEA164602FA07F746EA070641
:1057200022FA03F2C3F1200701FA07F742EA07025F
:1057300021FA03F14FF00003A7E746EA020646EA22
:1057400006464FEA164646EA0106BCBF46EA06464A
:10575000360C4FF000034FF000024FF0000194E7C9
:105760002DE9804C70B49A46934691E8380007C8FA
:1057700031EA400C48BF34EA430C03D5FFF7E6FD9D
:10578000FFF780FFF0BCBDE8008C2DE9804C70B4C1
:105790009A46934691E8380007C810F0804F08BF3A
:1057A00013F0804F03D100F005F8FFF76BFFF0BC5A
:1057B000BDE8008C20F07F4723F07F4C80EA030097
:1057C00000F0004007EB0C03A3F57C53A3F1FE03AC
:1057D00092F0000F00F0B38095F0000F00F077809A
:1057E0002DE901494FEA114021EA00484FEA1446E9
:1057F00024EA064700FB06FC08FB06F607FB08F850
:1058000018EB06484CEB164C00FB07F718EB074863
:105810004CEB17404FEA124B22EA0B4E4FEA15466B
:1058200025EA06470BFB06FC0EFB06F607FB0EFE01
:105830001EEB064E4CEB164C0BFB07F71EEB074E10
:105840004CEB174B18EB0B0840F1000018EB0E0B5C
:1058500058EB000840F100008F1A4FF000014FF0A4
:1058600000063CBFC943661B14BFB5EB040C002106
:105870003CBFC943F61B4FEA174427EA04454FEAE9
:105880001C472CEA074C04FB076205FB07F70CFBDF
:1058900005F616EB074642EB174204FB0CFC16EB31
:1058A0000C4642EB1C421BEB060658EB0202414140
:1058B0004EEA8E0E46EA9E0601D5BDE80189B6196C
:1058C000524141EB0101A3F10103BDE801894FEA17
:1058D000144524EA05464FEA114721EA074C05FB27
:1058E00007F406FB07F70CFB06F111EB074144EB4D
:1058F000174405FB0CFC11EB0C4144EB1C444FEA34
:10590000124722EA074C05FB07F206FB07F70CFBE0
:1059100006F616EB074642EB174205FB0CFC16EBAE
:105920000C4642EB1C456A1854F1000148BF704711
:10593000B619524141EB0101A3F10103704795F003
:10594000000F37D04FEA114221EA02464FEA1447CE
:1059500024EA074C02FB07F106FB07F70CFB06F4F1
:1059600014EB074441EB174102FB0CFC14EB0C4415
:1059700041EB1C414FEA154725EA074C02FB07F5AE
:1059800006FB07F70CFB06F616EB074645EB17453B
:1059900002FB0CFC16EB0C4645EB1C42121951F1B4
:1059A000000148BF7047B619524141EB0101A3F114
:1059B000010370474FEA144524EA05464FEA1147B0
:1059C00021EA074C05FB07F106FB07F70CFB06F283
:1059D00012EB074241EB174105FB0CFC12EB0C42AA
:1059E00051EB1C414FF0000648BF7047921841EB45
:1059F0000101A3F101037047490050EAC12018BF1B
:105A000004204A0D18BF40F0010040F2FF72B2EBD3
:105A1000515F08BF40F00200012808BF0520704711
:105A20002DE9F0414F1E00EBC7010446D1E900010A
:105A300015461E4637F006020DD02A46334600F0C2
:105A40006BFD7F1E04EBC703D3E9002300F082FA4D
:105A500037F00602F1D1022F25D0042F13D0062FE4
:105A600018BFBDE8F0812A46334600F055FDD4E961
:105A70000A2300F06FFA2A46334600F04DFDD4E9C0
:105A8000082300F067FA2A46334600F045FDD4E9C2
:105A9000062300F05FFA2A46334600F03DFDD4E9C4
:105AA000042300F057FA2A46334600F035FDD4E9C6
:105AB000022300F04FFA2A46334600F02DFDD4E9C8
:105AC0000023BDE8F04100F045BA012201F062B8C0
:105AD00000F040BA024A0020110701F05BB8000054
